:100000000C944F010C94DF0D0C94B40D0C94890DDD
:100010000C945E0D0C94330D0C94080D0C94DD0CB7
:100020000C94B20C0C9480010C9480010C9480010F
:100030000C9480010C94690B0C9480010C94800149
:100040000C9480010C9480010C9480010C9480012C
:100050000C9480010C9480010C9480010C94680C29
:100060000C9480010C94320C0C94080C0C948001BC
:100070000C9480010C9480010C9480010C948001FC
:100080000C9480010C9480010C9480010C948001EC
:100090000C9480010C9480010C9480010C948001DC
:1000A0000C9480010C9480010C9480010C948001CC
:1000B0000C9480010C9480010C9480010C948001BC
:1000C0000C9480010C9480010C9480010C948001AC
:1000D0000C9480010C9480010C9480010C9480019C
:1000E0000C9480010C9421030C94E3140C94CB1316
:1000F0000C9446030C9454030C9402150C94501465
:100100000C941F020C942E030C9438030C941102CF
:100110000C944E030C9402140C9419030C945A156D
:100120000C944A030C9453030C94FD010C94C101EC
:100130000C94FB040C949D140C9457020C94320301
:100140000C9425030C9458030C9413030C94840E04
:100150000C9485030C94EE010C9463140C943C03F2
:100160000C941D030C9440030C94A5130C9485145B
:100170000C9428030C94A402000021002400270002
:100180002A002D00300033000101000004010701A6
:100190000A01000020002300260029002C002F0067
:1001A00032000001000003010601090100000A0BF2
:1001B00002090C0D0E0807030401000000000000F6
:1001C000000000000000000000000000000000002F
:1001D00000000000000000001211100000000000EC
:1001E000000000000000000000000000000000000F
:1001F00000000201021020200808102040102040BA
:1002000080020102010804020101020408102040DA
:1002100080804020100804020180040201804020F8
:100220001008040201080402010102040810204021
:1002300080010204081020408000002200250028D0
:10024000002B002E003100340002010000050108DF
:10025000010B01050505050705080808080202024B
:10026000020A0A0808040404040101010101010151
:10027000010303030303030303040707070C0C0C28
:100280000C0C0C0C0C020202020606060606060600
:10029000060B0B0B0B0B0B0B0B00840E5A151124CA
:1002A0001FBECFEFD1E2DEBFCDBF00E00CBF24E028
:1002B000A8EFB2E001C01D92AC3BB207E1F712E03B
:1002C000A0E0B2E0EEE6F0E300E00BBF02C0079072
:1002D0000D92A83FB107D9F711E0CEE4D1E000E0DC
:1002E00006C021970109802FFE010E940016CD341F
:1002F000D10780E00807A9F70E94670F0C94251822
:100300000C9400000F931F93CF93DF93EC0128858B
:10031000222319F109851A852150D9F030E050E0E7
:1003200040E06FEF7FEF80E090E00E94E115F80180
:100330004C815D81CF01801B910B8417950760F480
:100340004081429FC001439F900D112490833196BC
:10035000EFCF30E020E0EBCF1886DF91CF911F91F7
:100360000F9108958091F1039091F20382309105ED
:1003700038F0880F991F880F991F05970197F1F79B
:100380000895AF92BF92CF92DF92EF92FF920F93B8
:100390001F93CF93DF936C017B018B01040F151F1B
:1003A000EB015E01AE18BF08C017D10759F0699183
:1003B000D601ED91FC910190F081E02DC6011995D7
:1003C000892B79F7C501DF91CF911F910F91FF9094
:1003D000EF90DF90CF90BF90AF900895FC01538DC8
:1003E000448D252F30E0842F90E0821B930B54170F
:1003F00010F0CF96089501970895FC01918D828D9C
:10040000981761F0A28DAE0FBF2FB11D5D968C9134
:10041000928D9F5F9F73928F90E008958FEF9FEF73
:100420000895FC01918D828D981731F0828DE80F2F
:10043000F11D858D90E008958FEF9FEF0895FC01E9
:10044000918D228D892F90E0805C9F4F821B9109B6
:100450008F739927089581E593E00E941F0221E0A0
:10046000892B09F420E0822F0895FC01A48DA80FA8
:10047000B92FB11DA35ABF4F2C91848D90E00196E6
:100480008F739927848FA689B7892C93A089B18906
:100490008C91837080648C93938D848D981306C0A7
:1004A0000288F389E02D80818F7D80830895EF920B
:1004B000FF920F931F93CF93DF93EC0181E0888F1E
:1004C0009B8D8C8D98131AC0E889F989808185FFEE
:1004D00015C09FB7F894EE89FF896083E889F98990
:1004E00080818370806480839FBF81E090E0DF9192
:1004F000CF911F910F91FF90EF900895F62E0B8DE5
:1005000010E00F5F1F4F0F731127E02E8C8D8E119F
:100510000CC00FB607FCFACFE889F989808185FF06
:10052000F5CFCE010E943502F1CFEB8DEC0FFD2F00
:10053000F11DE35AFF4FF0829FB7F8940B8FEA89C1
:10054000FB8980818062CFCFCF93DF93EC01888DD0
:100550008823B9F0AA89BB89E889F9898C9185FD3E
:1005600003C0808186FD0DC00FB607FCF7CF8C91CC
:1005700085FFF2CF808185FFEDCFCE010E9435024D
:10058000E9CFDF91CF91089580E090E0892B29F0A9
:100590000E942B0281110E94000080E090E0892BD4
:1005A00049F080E090E0892B29F00E940000811141
:1005B0000E94000080E090E0892B49F080E090E00C
:1005C000892B29F00E94000081110E94000080E028
:1005D00090E0892B49F080E090E0892B29F00E947F
:1005E000000081110C94000008958150823108F0C0
:1005F0005AC0E82FF0E08827EF5FFC4F8F4F0C9434
:10060000001621032503130319031D0353032803B5
:100610002E03320338033C03400346034A035303CB
:100620004E0354035803809180008F77809380009D
:100630000895809180008F7DF9CF80918000877F21
:10064000F5CF84B58F7784BD089584B58F7DFBCFBA
:100650008091B0008F778093B00008958091B000B2
:100660008F7DF9CF809190008F77809390000895CF
:10067000809190008F7DF9CF80919000877FF5CF9A
:100680008091A0008F778093A00008958091A000B2
:100690008F7DF9CF8091A000877FF5CF80912001D9
:1006A0008F77809320010895809120018F7DF9CF6D
:1006B00080912001877FF5CFCF93DF93282F30E003
:1006C000F901E455FE4F8491F901ED50FE4FD491AC
:1006D000F901ED5AFD4FC491CC23A1F081110E9484
:1006E000F502EC2FF0E0EE0FFF1FEE56FE4FA59146
:1006F000B491EC91ED2381E090E009F480E0DF918A
:10070000CF91089580E090E0FACF0F931F93CF939D
:10071000DF9381E080934C030BE112E0D0E0C0E076
:10072000F80181918F010E945C03FE01E75CFC4FA0
:1007300080832196CF30D10599F7DF91CF911F911A
:100740000F9108951F93CF93DF93282F30E0F90185
:10075000E455FE4F8491F901ED50FE4FD491F9011B
:10076000ED5AFD4FC491CC23A9F0162F81110E94A0
:10077000F502EC2FF0E0EE0FFF1FE75CFD4FA591B7
:10078000B4918FB7F894EC91111108C0D095DE2385
:10079000DC938FBFDF91CF911F910895DE2BF8CFAF
:1007A000CF93DF9390E0FC01ED50FE4F24918D5AE2
:1007B0009D4FFC0184918823C9F090E0880F991F18
:1007C000FC01E858FE4FA591B491FC01E75CFD4F98
:1007D000C591D49161110DC09FB7F8948C9120956B
:1007E00082238C938881282328839FBFDF91CF9118
:1007F0000895623051F49FB7F8943C91822F809510
:1008000083238C93E8812E2BEFCF8FB7F894EC9154
:100810002E2B2C938FBFEACFCF93DF93CEEED3E076
:1008200061E089810E94D0030E94B20160E088816A
:100830000E94D0030E94B20160E089810E94D0032F
:10084000DF91CF910C94B2010F931F93CF93DF935D
:10085000D82FC8E061E08091EE030E94D0030E948F
:10086000B2010D2F10E060E0D0FF61E08091EF0356
:100870000E94D0030E94B20160E08091EE030E94CA
:10088000D0030E94B20115950795D02FC15011F7E2
:1008900061E08091EE030E94D00360E08091EF035D
:1008A0000E94D0030E94B20160E08091EE030E949A
:1008B000D0030E94B2018091EF030E945C03C82F15
:1008C000811105C061E08091EF030E94D0030E9476
:1008D000B20161E08091EE030E94D0030E94B20158
:1008E00081E0C11101C080E0DF91CF911F910F9194
:1008F000089561E08091EF030E94D0030C94B2014F
:10090000EF92FF920F931F93CF93DF93182FE92E4F
:10091000062FC42F0E94790480E40E9424040E94C0
:100920000C040E94790480EC8C0F0E942404F12EA8
:10093000C12FDE2D89910E9424048C2F8F198017DE
:10094000C8F30E940C040E9479048091F0038F7018
:1009500080580E942404DF91CF911F910F91FF9046
:10096000EF900C940C04CF93DF9300D01F92CDB77F
:10097000DEB719821A821B821C8240E064E0CE013D
:1009800001960E9480040F900F900F900F90DF91BE
:10099000CF9108953FB7F894809117039091180371
:1009A000A0911903B0911A0326B5A89B05C02F3F4B
:1009B00019F00196A11DB11D3FBFBA2FA92F982F85
:1009C0008827BC01CD01620F711D811D911D42E080
:1009D000660F771F881F991F4A95D1F708952FB783
:1009E000F894609113037091140380911503909112
:1009F00016032FBF08950895CF92DF92EF92FF92D2
:100A0000CF93DF93FC01CA01AA27BB27C32ED42EA4
:100A1000E52EFF244C2D3085332371F0C32FD0E019
:100A2000C89FA001C99F500DD89F500D1124852F3C
:100A30003C9D600111244D2DA6852185328593852D
:100A4000A9131DC0DB01AA0FBB1F6A0F7B1F620F1A
:100A5000731FA385A60FB72FB11D8C93A485A60F76
:100A6000B72FB11D4C938585680F711DFB01108256
:100A7000DF91CF91FF90EF90DF90CF900895660FB8
:100A8000771F660F771F620F731FA60FB72FB11D59
:100A90001C92DFCFCF92DF92EF92FF920F931F93C2
:100AA000CF93DF9300D000D000D0CDB7DEB78C015C
:100AB000DC0119968D919C91892B09F465C00E94E7
:100AC000CA04F801C784D088E188F2886C197D09CE
:100AD0008E099F096C3271408105910580F3F8946D
:100AE000D80114968D919C9115979A8389831996B4
:100AF000ED91FC917F01BFEFEB1AFB0A80818987A2
:100B0000F80190810388F489E02DD80155968C91E5
:100B1000992309F448C09081982B988790818095FB
:100B200089238F838F818C8388E08B8358856F81A5
:100B300049853B812C8189819A81D701508347FD6A
:100B4000252F3A952083262F39F0441F00C000003E
:100B50006083000000C0F2CF38E04D916083000058
:100B6000019761F7D8015496FC93EE935397498708
:100B70003B832C839A83898378940E94CA04F8016A
:100B80006787708B818B928B29960FB6F894DEBFA6
:100B90000FBECDBFDF91CF911F910F91FF90EF90CE
:100BA000DF90CF9008959081982B988790818095C1
:100BB00089238F838F818E8388E08D8358856F8111
:100BC00049853D812E8189819A81D701508347FDD6
:100BD000252F00C000C0208300C000C000C000C09E
:100BE00000C060830000262F3A9541F0441F0000AA
:100BF00000C000C000C000C000C0E8CF38E04D9188
:100C000000C0608300C0019709F7D8015496FC9397
:100C1000EE93539749873D832E83ACCFCF93DF93D9
:100C2000EC018E819F8197FD07C061E00E94D00397
:100C300060E08E810E94A20381E08983DF91CF91E1
:100C40000895CF93DF93EC018E85882349F00E94AD
:100C5000EF04688379838A839B83DF91CF91089522
:100C60000E94CA04F6CFCF92DF92EF92FF920F93C9
:100C70001F93CF93DF93EC01898182FD13C085FD23
:100C800011C08A810E945C03398131FB222720F93F
:100C900033FB332730F9232731E0892B09F030E08B
:100CA0002327298B0E94EF04AB01BC0199892A8973
:100CB0008881992309F46BC0211169C080FD4EC061
:100CC000816088834D875E876F87788B8A898823C8
:100CD00019F1992309F18D819E81B0E0A0E00D8585
:100CE0001E852F8538896A017B01C01AD10AE20A64
:100CF000F30A97018601081719072A073B0760F0D6
:100D0000888181FD09C01B861C868A648F77888351
:100D10004D875E876F87788B8D859E85AF85B88977
:100D2000481B590B6A0B7B0B8F819885B0E0A0E0C4
:100D3000481759076A077B0740F08B85882329F0FD
:100D40008C871B86888184608883DF91CF911F9177
:100D50000F91FF90EF90DF90CF9008950D851E8545
:100D60002F8538896A017B01C01AD10AE20AF30A89
:100D70000B811C8130E020E0C016D106E206F306AC
:100D800058F221E02A8B8062806888839FCF8E7F13
:100D9000888391119BCF222309F4BECF1A8A81FD4B
:100DA00003C08B858F5F8B8788818D7F4D875E87A2
:100DB0006F87788B80618F7B888387FFADCF8F773C
:100DC000888389818160898381CFCF93DF93EC0110
:100DD000898184FF03C0CE010E943306988192FB73
:100DE000882780F992FF05C02C85213029F49B7F4C
:100DF0009883DF91CF91089580E0FBCFCF938091CE
:100E00000002833121F08F3FC9F0CF910895E2EFC6
:100E1000F1E0C491C7FDF9CF61E083E10E94D00306
:100E2000CC2309F4DEC0C23009F0F3C08091B100D8
:100E3000887F84608093B10089EF7FC183E18093D4
:100E40000002E2EFF1E0C4918C2FCF3FF1F2C2300B
:100E500009F468C060F4CC2379F1C13009F444C0CE
:100E600087FDD3CF61E083E10E94D003DCCFC430A3
:100E700009F499C008F478C0C53091F710922001A8
:100E8000109221018091210188608093210180913D
:100E90002101816080932101E6E6F2E0E491F0E037
:100EA000EE0FFF1FE75CFD4F85919491E6E0F2E0C5
:100EB000E491E093F902B0CF14BC15BC84B5826014
:100EC00084BD85B5816085BDE6E6F2E0E491F0E0A1
:100ED000EE0FFF1FE75CFD4F85919491E6E0F2E095
:100EE000E491E093FD0298CF10928000109281006F
:100EF0008091810088608093810080918100816071
:100F000080938100E6E6F2E0E491F0E0EE0FFF1F4F
:100F1000E75CFD4F85919491E6E0F2E0E491E09387
:100F2000FC027ACF1092B0001092B1008091B00014
:100F300082608093B0008091B10081608093B100A5
:100F4000E6E6F2E0E491F0E0EE0FFF1FE75CFD4F14
:100F50008591949190931C0380931B03E6E0F2E04B
:100F6000E491E0931D0358CF1092900010929100ED
:100F700080919100886080939100809191008160C0
:100F800080939100E6E6F2E0E491F0E0EE0FFF1FBF
:100F9000E75CFD4F85919491E6E0F2E0E491E09307
:100FA000FB02C3E039CF1092A0001092A100809103
:100FB000A10088608093A1008091A100816080934E
:100FC000A100E6E6F2E0E491F0E0EE0FFF1FE75C3F
:100FD000FD4F85919491E6E0F2E0E491E093FA020E
:100FE0001BCF85B5887F836085BD89EF87BD84E68B
:100FF00090E0A0E0B0E080930E0390930F03A093E5
:101000001003B093110380916E00826080936E0094
:10101000FCCEC130F1F480918100887F81608093A3
:1010200081008FE79EE3909389008093880084E697
:1010300090E0A0E0B0E080930A0390930B03A093AC
:101040000C03B0930D0380916F00826080936F005A
:10105000DCCEC330F1F480919100887F8160809371
:1010600091008FE79EE3909399008093980084E627
:1010700090E0A0E0B0E08093060390930703A09374
:101080000803B0930903809171008260809371001E
:10109000BCCEC430F1F48091A100887F8160809340
:1010A000A1008FE79EE39093A9008093A80084E6B7
:1010B00090E0A0E0B0E08093020390930303A0933C
:1010C0000403B093050380917200826080937200E4
:1010D0009CCEC530F1F480912101887F816080939E
:1010E00021018FE79EE3909329018093280184E6F4
:1010F00090E0A0E0B0E08093FE029093FF02A09306
:101100000003B093010380917300826080937300A9
:101110007CCEC23089F034F4CC2361F0C13009F0C8
:1011200074CE7FCFC43009F4BCCF0CF49ACFC53055
:10113000C1F26BCE8FE75ACF8FE78093B30084E67E
:1011400090E0A0E0B0E080931E0390931F03A09373
:101150002003B0932103809170008260809370001F
:1011600054CEDF92EF92FF920F931F93CF93DF93B2
:1011700000D01F92CDB7DEB7D62E262F30E0B901B2
:1011800061507109009701F5998180E08617170673
:101190001CF48F5F90E0FACF99836C0F7D1F8FE373
:1011A000DB0111968C936D2DCE0101960E94800477
:1011B0000F900F900F900F90DF91CF911F910F9193
:1011C000FF90EF90DF900895FC018E010F5F1F4F9D
:1011D000200F311F8AE0E82EF12CCF01B7010E94C9
:1011E000AB1521503109009769F4309759F4D901B2
:1011F0001C92CF01B7010E94AB15FB010217130728
:1012000061F7D1CF8F5B9D4FDC018C91D9018C931D
:10121000F0CF1F93CF93DF936CE370E00E94AB1588
:10122000262FEC01662391F01092F80240E062E074
:10123000822F972F0E94B108CA3090F042E062E0FE
:10124000CE01DF91CF911F910C94B1088091F802EB
:101250008111F4CF0E94B30481E08093F802EECFB5
:1012600042E061E090E080E00E94B10843E061E08C
:10127000E7CFFC0101900020E9F73197AF01481B4F
:10128000590BBC0181E593E00C94C1018F929F92B0
:10129000AF92BF920F931F93CF93DF93CDB7DEB77B
:1012A000A1970FB6F894DEBF0FBECDBF19A2423092
:1012B00008F44AE08E010F5D1F4F842E912CB12C53
:1012C000A12CA50194010E94BF15E62FB901CA0106
:1012D000EA30F4F4E05DD801EE938D01232B242B4A
:1012E000252B79F790E080E0109719F0CD010E944E
:1012F0003909A1960FB6F894DEBF0FBECDBFDF91BE
:10130000CF911F910F91BF90AF909F908F900895B4
:10131000E95CE1CFCF93DF930E943909EC0183E6CA
:1013200092E00E9439098C0F9D1FDF91CF910895A3
:10133000CF93DF93FC01448155816081718181E508
:1013400093E00E94C101EC0183E692E00E9439091A
:101350008C0F9D1FDF91CF910895682F70E090E072
:1013600080E04AE00E94460983E692E00C94390945
:10137000FC014481558170E060E0818592850C9488
:101380001718AF92BF92CF92DF92EF92FF921F9306
:10139000CF93DF935C016A017B0185E794E00E94B3
:1013A000B8098FE594E00E94B80989E494E00E94AE
:1013B000B809A114B10491F110E0C12FD0E0CA1511
:1013C000DB0560F58091770490917804C817D90700
:1013D00038F4A7019601BE0185E794E00E94FC0461
:1013E0008091610490916204C817D90738F4A7016D
:1013F0009601BE018FE594E00E94FC0480914B04AD
:1014000090914C04C817D90738F4A7019601BE0182
:1014100089E494E00E94FC041F5FCFCF85E794E04D
:101420000E944A058FE594E00E944A0589E494E011
:10143000DF91CF911F91FF90EF90DF90CF90BF9001
:10144000AF900C944A05FC0180819181009711F0C6
:101450000C94A4160895CF93CFE08091FB03909154
:10146000FC03892B11F18091F3039091F403009711
:10147000E1F0FC01218132813093F4032093F303E6
:101480000E94A4168091F3039091F403892B21F418
:101490001092F6031092F5038091FB039091FC03E8
:1014A00001979093FC038093FB03C150B1F6CF9159
:1014B00008950F931F93CF93DF93EC018881998157
:1014C000009759F02A813B812617370730F081E0D9
:1014D000DF91CF911F910F9108958B016F5F7F4F27
:1014E0000E942D17009759F0998388831B830A83E4
:1014F0002C813D81232B59F7FC011082E8CF80E03D
:10150000E7CFEF92FF920F931F93CF93DF93EC01FE
:10151000FB01E080F180E114F10411F104811581F7
:1015200001151105A9F08C819D81080F191FB801C3
:10153000CE010E94590A882399F0288139818C8133
:101540009D81B701820F931F0E941E181D830C837B
:10155000CE01DF91CF911F910F91FF90EF900895F1
:1015600088819981009711F00E94A416198218822F
:101570001D821C821B821A82EBCFEF92FF920F9387
:101580001F93CF93DF93EC017B018A01BA010E9484
:10159000590A28813981811114C02115310519F0AA
:1015A000C9010E94A416198218821D821C821B8206
:1015B0001A82CE01DF91CF911F910F91FF90EF9092
:1015C00008951D830C83B701C9010E941E18F1CF35
:1015D000EF92FF920F931F93CF93DF93CDB7DEB7B8
:1015E00062970FB6F894DEBF0FBECDBF8C01CB0162
:1015F000F8011182108213821282158214824AE04D
:101600009E012F5F3F4F7901B9010E947615F701C6
:1016100001900020E9F73197AF014E195F09B7013A
:10162000C8010E94BD0A62960FB6F894DEBF0FBED5
:10163000CDBFDF91CF911F910F91FF90EF90089553
:10164000EF92FF920F931F93CF93DF93CDB7DEB747
:1016500061970FB6F894DEBF0FBECDBF8C01CB01F2
:10166000F8011182108213821282158214824AE0DC
:101670009E012F5F3F4F7901B9010E948115F7014B
:1016800001900020E9F73197AF014E195F09B701CA
:10169000C8010E94BD0A61960FB6F894DEBF0FBE66
:1016A000CDBFDF91CF911F910F91FF90EF900895E3
:1016B000FC01118210821382128215821482FB01B6
:1016C00001900020E9F73197AF01461B570B0C94AE
:1016D000BD0A1F920F920FB60F9211240BB60F92F4
:1016E0002F933F934F935F936F937F938F939F932A
:1016F000AF93BF93EF93FF9380911E0390911F03CD
:10170000A0912003B0912103892B8A2B8B2BE1F12F
:1017100090911D03E0911B03F0911C0380818927A8
:10172000808380911E0390911F03A0912003B091AC
:101730002103181619061A061B069CF480911E0335
:1017400090911F03A0912003B09121030197A1095B
:10175000B10980931E0390931F03A0932003B093BD
:101760002103FF91EF91BF91AF919F918F917F9155
:101770006F915F914F913F912F910F900BBE0F9002
:101780000FBE0F901F90189580910002E2EFF1E0DC
:10179000E4919FEF90930002E230E9F040F4EE23F1
:1017A00089F0E13091F060E00E94A203DACFE430EA
:1017B00049F110F1E530B9F7909173009D7F909356
:1017C0007300F1CF10926E00EECF90916F009D7F6D
:1017D00090936F00E8CF909170009D7F9093700080
:1017E00091E09093B0009091B100987F94609093B5
:1017F000B1001092B300D7CF909171009D7F90936C
:101800007100D1CF909172009D7F90937200CBCFE9
:101810001F920F920FB60F9211240BB60F922F93B7
:101820003F934F935F936F937F938F939F93AF9368
:10183000BF93EF93FF9381E593E00E943502FF9100
:10184000EF91BF91AF919F918F917F916F915F9138
:101850004F913F912F910F900BBE0F900FBE0F90A5
:101860001F9018951F920F920FB60F9211240BB66E
:101870000F922F938F939F93EF93FF93E0916103C8
:10188000F09162038081E0916703F091680382FD2B
:101890001DC0908180916A038F5F8F7320916B03CD
:1018A000821741F0E0916A03F0E0EF5AFC4F958F08
:1018B00080936A03FF91EF919F918F912F910F90E9
:1018C0000BBE0F900FBE0F901F9018958081F2CF26
:1018D0001F920F920FB60F9211242F933F938F9365
:1018E0009F93AF93BF938091130390911403A091A2
:1018F0001503B09116033091120323E0230F2D3707
:1019000058F50196A11DB11D209312038093130376
:1019100090931403A0931503B093160380911703BB
:1019200090911803A0911903B0911A030196A11D7B
:10193000B11D8093170390931803A0931903B093DC
:101940001A03BF91AF919F918F913F912F910F906B
:101950000FBE0F901F90189526E8230F0296A11D29
:10196000B11DD2CF1F920F920FB60F9211240BB65A
:101970000F922F933F934F935F936F937F938F9328
:101980009F93AF93BF93EF93FF93E0910F02F0917A
:1019900010021995FF91EF91BF91AF919F918F9197
:1019A0007F916F915F914F913F912F910F900BBE5F
:1019B0000F900FBE0F901F9018951F920F920FB6A9
:1019C0000F9211240BB60F922F933F934F935F9377
:1019D0006F937F938F939F93AF93BF93EF93FF93F7
:1019E000E0910D02F0910E021995FF91EF91BF91D8
:1019F000AF919F918F917F916F915F914F913F91A7
:101A00002F910F900BBE0F900FBE0F901F90189547
:101A10001F920F920FB60F9211240BB60F922F93B5
:101A20003F934F935F936F937F938F939F93AF9366
:101A3000BF93EF93FF93E0910302F0910402199595
:101A4000FF91EF91BF91AF919F918F917F916F9196
:101A50005F914F913F912F910F900BBE0F900FBE52
:101A60000F901F9018951F920F920FB60F9211248E
:101A70000BB60F922F933F934F935F936F937F9388
:101A80008F939F93AF93BF93EF93FF93E0910102E6
:101A9000F09102021995FF91EF91BF91AF919F9143
:101AA0008F917F916F915F914F913F912F910F9007
:101AB0000BBE0F900FBE0F901F9018951F920F92A4
:101AC0000FB60F9211240BB60F922F933F934F93A3
:101AD0005F936F937F938F939F93AF93BF93EF9396
:101AE000FF93E0910B02F0910C021995FF91EF9199
:101AF000BF91AF919F918F917F916F915F914F9126
:101B00003F912F910F900BBE0F900FBE0F901F9023
:101B100018951F920F920FB60F9211240BB60F92C9
:101B20002F933F934F935F936F937F938F939F93E5
:101B3000AF93BF93EF93FF93E0910902F0910A02F4
:101B40001995FF91EF91BF91AF919F918F917F91E7
:101B50006F915F914F913F912F910F900BBE0F901E
:101B60000FBE0F901F9018951F920F920FB60F92F5
:101B700011240BB60F922F933F934F935F936F9364
:101B80007F938F939F93AF93BF93EF93FF93E091D6
:101B90000702F09108021995FF91EF91BF91AF9163
:101BA0009F918F917F916F915F914F913F912F9175
:101BB0000F900BBE0F900FBE0F901F9018951F92A5
:101BC0000F920FB60F9211240BB60F922F933F93E3
:101BD0004F935F936F937F938F939F93AF93BF9335
:101BE000EF93FF93E0910502F09106021995FF91A2
:101BF000EF91BF91AF919F918F917F916F915F9185
:101C00004F913F912F910F900BBE0F900FBE0F90F1
:101C10001F901895CF93DF93EC01862F2CE330E0D3
:101C20003C832B8324EF31E03E832D832CE231E093
:101C300038872F8320E931E03A8729871B861C8665
:101C40001D861E861F86188A198A1A8A6A839981B8
:101C50009F7D977F998362E00E94D00389818B7E6C
:101C60008D7F8983DF91CF9108950F931F93CF9339
:101C7000DF93EC018B01198218861F86188A198A56
:101C80001A8A81E08E878B871C8692E09D878883E5
:101C90008AE590E09D838C830E9408169A87898745
:101CA000009769F12AE5FC0111922A95E9F78EE186
:101CB00090E09B838A831F830E838981882341F070
:101CC00061E0802F0E94D00360E0802F0E94A20379
:101CD000F801ED5AFD4FE491F0E0EE0FFF1FE75CD5
:101CE000FD4F859194919C8B8B8BF801ED50FE4FAD
:101CF000E491ED8BDF91CF911F910F9108951D829B
:101D00001C821B821A82D7CFCF92DF92EF92FF9272
:101D10000F931F93CF93DF93E1E5F3E013821282D9
:101D200088EEC82E83E0D82EE12CF12CC482D58217
:101D3000E682F78285E592E09183808385EC90E0EE
:101D40009587848784EC90E09787868780EC90E085
:101D5000918B808B81EC90E0938B828B82EC90E076
:101D6000958B848B86EC90E0978B868B118E128EF0
:101D7000138E148E09EA14E0F80110821182128287
:101D800013821086118612861386C1E0C487C68727
:101D900088EB9BE0A0E0B0E084839583A683B783C3
:101DA000C587C8010E942106F801C6870AE914E028
:101DB000F801108211821282138210861186128617
:101DC0001386C487C687C482D582E682F782C58718
:101DD000C8010E942106F801C6870BE814E0F8014B
:101DE0001082118212821382148215821682178247
:101DF0001086118612861386C4871586C6870E94B0
:101E0000EF04F801C080D180E280F3806C197D0975
:101E10008E099F096087718782879387C68765E0EF
:101E200070E085E794E00E94350E63E070E08FE596
:101E300094E00E94350E64E070E089E494E00E9432
:101E4000350E6FE086E394E00E940A0E60E183E2C3
:101E500094E00E940A0E61E180E194E00E940A0E83
:101E60006EE08DEF93E00E940A0EE3EFF3E0118243
:101E7000108213821282118610868FEF9FEF978354
:101E800086838FE090E095838483CEEED3E084E375
:101E9000888385E3898384E690E09C838B8360E07C
:101EA00084E30E94D00360E089810E94D00360E057
:101EB00088810E94A20360E08981DF91CF911F9108
:101EC0000F91FF90EF90DF90CF900C94A203CF93EF
:101ED000DF93CDB7DEB760970FB6F894DEBF0FBEC5
:101EE000CDBF789484B5826084BD84B5816084BDA3
:101EF00085B5826085BD85B5816085BD80916E00A8
:101F0000816080936E0010928100809181008260D8
:101F10008093810080918100816080938100809115
:101F200080008160809380008091B1008460809304
:101F3000B1008091B00081608093B00080919100E9
:101F400082608093910080919100816080939100E4
:101F5000809190008160809390008091A1008260C8
:101F60008093A1008091A10081608093A100809165
:101F7000A00081608093A000809121018260809305
:101F800021018091210181608093210180912001B4
:101F900081608093200180917A00846080937A0030
:101FA00080917A00826080937A0080917A008160CB
:101FB00080937A0080917A00806880937A001092F2
:101FC000C10090E080E021E0FC01E75CFC4F208351
:101FD00001968F309105C1F70AE212E061E0D80165
:101FE0008D918D010E94D003B2E009331B07B1F738
:101FF0000BE112E0AAE2EA2EA2E0FA2E62E0F8017A
:1020000081918F010E94D003E016F106B9F7F9E340
:10201000EF2EF2E0FF2E61E0D7018D917D010E944D
:10202000D003B1E4EB16B2E0FB06A9F761E085E06E
:102030000E94D00361E083E00E94D00361E084E06D
:102040000E94D0038FE08093F00319821A821B82D2
:102050001C8240E064E0CE0101960E94800461E0B1
:1020600083E10E94D003E0916103F091620382E07A
:102070008083E0915D03F0915E031082E0915F0345
:10208000F09160038FEC808310926903E091650307
:10209000F091660386E08083E0916303F09164032E
:1020A000808180618083E0916303F091640380818B
:1020B00088608083E0916303F0916403808180688D
:1020C0008083E0916303F091640380818F7D80833E
:1020D00085E794E00E940E0685E794E00E94820165
:1020E00085E794E00E94B80985E794E00E944A05DC
:1020F0008FE594E00E940E068FE594E00E94820135
:102100008FE594E00E94B8098FE594E00E944A05AB
:1021100089E494E00E940E0689E494E00E94820122
:1021200089E494E00E94B80989E494E00E944A0599
:1021300060E082E00E94D00385E893E0909308027B
:1021400080930702809169008C6080936900E99A0E
:102150000E94EF048CED95E0A0E0B0E080938F0446
:1021600090939004A0939104B093920481E08093A3
:102170009704809398048BE894E00E9421061092C3
:10218000970481E090E09093120280931102CC2496
:10219000C394D12CE2E06E2E712C86E394E00E9471
:1021A000330683E294E00E94330680E194E00E94CB
:1021B00033068DEF93E00E94330686E394E00E949D
:1021C000E5068823C1F0809150038F5F8093500310
:1021D00010924F0310924E0310924D0309E312E048
:1021E00060E0F80181918F010E94A203E016F106E0
:1021F000B9F70E94B3048DEF93E00E94E5068823AF
:1022000009F4BEC06091FB037091FC03CE010196FE
:102210000E94200B66E672E0CE0107960E94580BE2
:10222000BE016F5F7F4FCE0107960E94810A0E9418
:102230009809CE0107960E94230ACE0101960E94BA
:10224000230A6091F7037091F803CE0101960E9472
:10225000200B60E872E0CE0107960E94580BBE0189
:102260006F5F7F4FCE0107960E94810A0E949809F6
:10227000CE0107960E94230ACE0101960E94230AEE
:1022800061E070E08091F3039091F403892B11F0E9
:1022900070E060E0CE0101960E94E80A6AE972E00F
:1022A000CE0107960E94580BBE016F5F7F4FCE0193
:1022B00007960E94810A0E949809CE0107960E9403
:1022C000230ACE0101960E94230A61E070E020916A
:1022D000FB033091FC038091F7039091F8032817DA
:1022E000390711F070E060E0CE0101960E94E80A23
:1022F00069EA72E0CE0107960E94580BBE016F5F3B
:102300007F4FCE0107960E94810A0E949809CE0154
:1023100007960E94230ACE0101960E94230A87EBAA
:1023200092E00E948A0910E000E0F801E75CFC4FAF
:10233000608170E090E080E04AE00E9446090F5F13
:102340001F4F0F30110589F783E692E00E9439098B
:102350008EEB92E00E948A090AE213E0D8016D91A7
:102360008D0170E090E080E04AE00E944609E9E3D8
:10237000F3E0E017F10791F783E692E00E94390954
:102380008091A704882309F456C08091A80488236B
:1023900009F460C00E94EF0480909A0490909B041E
:1023A000A0909C04B0909D048D869E86AF86B88ACE
:1023B00000919E0410919F042091A0043091A104EB
:1023C0001B012C01281839084A085B082016310621
:1023D0004206530680F1E091A604EE2309F450C0B2
:1023E000AB01BC01401B510B620B730B8D859E85AD
:1023F000AF85B889800F911FA21FB31F8D879E875D
:10240000AF87B88B80179107A207B30730F5809389
:102410009A0490939B04A0939C04B0939D0485E739
:1024200094E00E944A058FE594E00E944A0589E401
:1024300094E00E944A0580915003813009F445C11F
:1024400010F1823009F4E7C2833009F404C310921A
:102450005003E5C00E94CA049FCF8D849E84AF8440
:10246000B88884169506A606B70608F4BFCF8092F2
:102470009A0490929B04A0929C04B0929D04CFCFAA
:102480001092A704CCCF80914F03811102C010920B
:10249000270380E194E00E94E506882389F184E027
:1024A000809327030091FB031091FC038091F703B5
:1024B0009091F8030817190709F4FAC083E090E037
:1024C0000E940816DC0112961C921E92119700972A
:1024D00009F4EEC021E02C930F5F1F4F2091F3030E
:1024E0003091F403232BC9F49093F4038093F30306
:1024F0009093F6038093F5031093FC030093FB0382
:1025000080912703823009F447C070F48823E1F0FA
:10251000813069F11092270382C0E091F503F091B8
:10252000F60392838183E4CF843009F4C1C008F4B8
:102530007EC0853079F783E294E00E94E506882327
:1025400009F46DC081E010C061E087E00E94A20341
:1025500061E088E00E94A20385EC92E00E948A0973
:1025600081E080934F0385E08093270358C00E9449
:10257000FE0689EC92E00E948A098FE08093260390
:102580000E94EF046093220370932303809324033B
:102590009093250382E0E8CF0E94EF04009122038C
:1025A000109123032091240330912503601B710BAC
:1025B000820B930B683E73408105910580F10E9468
:1025C000EF0460932203709323038093240390937A
:1025D000250350902603052D10E0C8010E9409092B
:1025E000C801880F991F60911102709112020E9418
:1025F000AB15CB0140E05FEF60E070E00E94C109E5
:102600008FEF850D809326038A3048F40E94FE06E2
:1026100089EC92E00E948A09E3E0E093270380912D
:102620004C03811110924C030E94C402B6CD0E944B
:10263000EF04009122031091230320912403309191
:102640002503601B710B820B930B683E7340810561
:10265000910528F30E94EF046093220370932303F3
:10266000809324039093250350902603052D10E0BA
:10267000C8010E940909C801880F991F60911102C1
:10268000709112020E94AB15CB0140E05FEF6FEF3B
:1026900070E00E94C1095A94509226035110BFCF96
:1026A0000E94FE0684ED92E00E948A0984E05CCFDD
:1026B00085E0809327030E94B30440E050E0BA0114
:1026C00090E080E00E94C109AACF80E194E00E94DE
:1026D000E506882351F00E94FE0648E0842E912CE6
:1026E00090921402809213029ACF8091110484FF79
:1026F00004C080E194E00E9433068091100482FFC0
:102700000DC090911C04923049F48B7F809310048B
:102710000E94FE06D0921402C0921302E0911302AE
:10272000F0911402E930F10508F079CF8827E456DA
:10273000FC4E8F4F0C940016E314A513CB13021418
:102740005014631485149D1402158CE380934B037D
:1027500010924A031092490381E08093480340E0BD
:1027600050E0BA0190E080E00E94C109EAE2F3E0A3
:1027700090E080E021E0DC01A75CBC4F2C9311923B
:1027800001968F309105B9F70E942B0A70921402BE
:102790006092130244CF8091FB039091FC03892B3C
:1027A00091F41092290383E294E00E94E5068823C5
:1027B00009F435CF0E94FE0623E030E03093140286
:1027C000209313022CCFE091F303F091F4033097A0
:1027D00041F3808180932903882329F30E94AD0966
:1027E0000E94FE0610924A031092490323E0922EA3
:1027F00090924B0337E0A32EB12CB0921402A0921A
:1028000013020DCF8091FB039091FC03892BE9F417
:10281000109229038091490390914A0310924A0330
:1028200010924903019609F4FACE80914B039FEF71
:10283000980F90934B039A3029F58091480381308B
:1028400009F0EDCE0E94FE06EACEE091F303F0918E
:10285000F4033097E9F28081809329038823D1F231
:102860000E94AD090E94FE0610924A03109249038D
:1028700044E050E05093140240931302D0CE0E94E3
:10288000FE06CDCE82508330D0F39111C8CE0E9487
:10289000FE0686E090E09093140280931302BFCE70
:1028A0008091490390914A03019690934A03809343
:1028B0004903039708F4B3CEA5E0B0E0B093140247
:1028C000A0931302ACCE83E294E00E94E506882335
:1028D00009F4A5CE809148038F5F809348030E943E
:1028E0002B0A8091280380934B0310924A03109285
:1028F00049030E94FE0680E00E94AD09E3E0F0E09B
:10290000F0931402E09313028ACE809149039091D0
:102910004A0310924A0310924903019609F47FCEAC
:1029200080914B03815080934B038C3F0CF077CE0A
:10293000D0921402C092130272CE80914B03811187
:1029400022C083E294E00E94E5068823E1F08091B2
:1029500048038F5F809348030E942B0A80912803CD
:1029600080934B0310924A031092490340E050E0D9
:10297000BA0190E080E00E94C1090E94FE0680E05A
:102980000E94AD0903CF8091490390914A030196BB
:1029900090934A0380934903892B21F480E00E949D
:1029A000AD093DCE10924A0310924903809129034C
:1029B0000E94AD0980914B03882309F430CE8150E9
:1029C00080934B032CCE83E294E00E94E50688239B
:1029D00079F00E94FE068091280385508A3018F015
:1029E000809328031CCE94E1892E8092280317CE71
:1029F00086E394E00E94E506882309F410CE0E9445
:102A0000FE0696CF84E1982E90922803109214022D
:102A10001092130204CE80914E03811100CE84EEF9
:102A200092E00E948A0961E086E00E94A20361E0D0
:102A300087E00E94A20361E08CE00E94A20361E0B3
:102A400088E00E94A20361E089E00E94A20381E085
:102A500080934E03E4CD80914D038111E0CD8DEE46
:102A600092E00E948A0961E08BE00E94A20361E08B
:102A700087E00E94A20361E08CE00E94A20361E073
:102A800088E00E94A20381E080934D03C8CDCF93DC
:102A9000DF93EC0189859A850E94A4168E819F811F
:102AA00097FD05C060E0DF91CF910C94D003DF91DA
:102AB000CF9108958091F3039091F403009751F022
:102AC000FC01218132813093F4032093F3030E94AF
:102AD000A416F0CF89E494E00E9447158FE594E0B6
:102AE0000E94471585E794E00C944715BB274A30B0
:102AF00031F4992322F4BDE2909581959F4F0C9477
:102B00008215BB27FB015527AA27880F991FAA1FEB
:102B1000A41710F0A41B83955051B9F7A05DAA33F8
:102B200008F0A95DA193009779F7B111B1931192C3
:102B3000CB010C949B15DC01FC01672F719177236D
:102B4000E1F7329704C07C916D9370836291AE1768
:102B5000BF07C8F30895AA1BBB1B51E107C0AA1FFA
:102B6000BB1FA617B70710F0A61BB70B881F991F2E
:102B70005A95A9F780959095BC01CD010895A1E2E1
:102B80001A2EAA1BBB1BFD010DC0AA1FBB1FEE1FE7
:102B9000FF1FA217B307E407F50720F0A21BB30B32
:102BA000E40BF50B661F771F881F991F1A9469F7AE
:102BB00060957095809590959B01AC01BD01CF010A
:102BC0000895052E97FB1EF400940E94F81557FDFA
:102BD00007D00E94BF1507FC03D04EF40C94F815E3
:102BE00050954095309521953F4F4F4F5F4F089539
:102BF00090958095709561957F4F8F4F9F4F089569
:102C0000EE0FFF1F881F8BBF0790F691E02D1994E0
:102C10000F931F93CF93DF938230910510F482E0DE
:102C200090E0E091BA04F091BB0430E020E0B0E025
:102C3000A0E0309799F42115310509F44AC0281B0A
:102C4000390B24303105D8F58A819B8161157105D6
:102C500089F1FB0193838283FE0111C04081518180
:102C60000281138148175907E0F04817590799F472
:102C7000109761F012960C93129713961C9332964C
:102C8000CF01DF91CF911F910F9108950093BA0466
:102C90001093BB04F4CF2115310551F042175307AF
:102CA00038F0A901DB019A01BD01DF01F801C1CFB4
:102CB000EF01F9CF9093BB048093BA04CDCFFE010E
:102CC000E20FF31F819391932250310939832883B6
:102CD000D7CF2091B8043091B904232B41F420912F
:102CE0001702309118023093B9042093B804209150
:102CF0001502309116022115310541F42DB73EB76A
:102D00004091190250911A02241B350BE091B8042E
:102D1000F091B904E217F307A0F42E1B3F0B28171C
:102D2000390778F0AC014E5F5F4F2417350748F044
:102D30004E0F5F1F5093B9044093B8048193919351
:102D40009FCFF0E0E0E09CCFCF93DF930097E9F0D6
:102D5000FC01329713821282A091BA04B091BB0495
:102D6000ED0130E020E01097A1F420813181820F45
:102D7000931F2091B8043091B9042817390709F03E
:102D800061C0F093B904E093B804DF91CF91089546
:102D9000EA01CE17DF07E8F54A815B819E01411504
:102DA0005105B1F7E901FB83EA8349915991C40FB9
:102DB000D51FEC17FD0761F4808191810296840F85
:102DC000951FE90199838883828193819B838A83FC
:102DD000F0E0E0E012968D919C9113970097B9F581
:102DE0002D913C911197CD010296820F931F209156
:102DF000B8043091B9042817390739F6309751F5DE
:102E00001092BB041092BA04B093B904A093B80412
:102E1000BCCFD383C28340815181840F951FC817D3
:102E2000D90761F44E5F5F4F88819981480F591F20
:102E3000518340838A819B8193838283211531054D
:102E400009F0B0CFF093BB04E093BA049ECFFD012C
:102E5000DC01C0CF13821282D7CF4F925F926F9264
:102E60007F928F929F92AF92BF92CF92DF92EF921A
:102E7000FF920F931F93CF93DF938C01009799F4E8
:102E8000CB01DF91CF911F910F91FF90EF90DF90D9
:102E9000CF90BF90AF909F908F907F906F905F90FA
:102EA0004F900C940816FC01E60FF71F9C0122506E
:102EB0003109E217F30708F4AEC0D901CD91DC91D6
:102EC0001197C617D70720F1C530D10578F0CE018C
:102ED00004978617970750F0C61BD70B2297C1930C
:102EE000D1936D937C93CF010E94A416C801DF910A
:102EF000CF911F910F91FF90EF90DF90CF90BF90F7
:102F0000AF909F908F907F906F905F904F900895BB
:102F10005B01AC1ABD0A4C018C0E9D1EA091BA0437
:102F2000B091BB04512C412CF12CE12C109731F5C0
:102F30008091B8049091B9048815990509F05CC096
:102F40004616570608F058C0809115029091160257
:102F5000009741F48DB79EB74091190250911A0223
:102F6000841B950BE817F90708F055C0F093B904D6
:102F7000E093B804F90171836083B8CF8D919C917F
:102F8000119712966C90129713967C901397A81530
:102F9000B90559F56C0142E0C40ED11CCA14DB041A
:102FA00020F1AC014A195B09DA011296159780F0FD
:102FB0006282738251834083D9016D937C93E114C3
:102FC000F10471F0D7011396FC93EE9312978ECF14
:102FD00022968C0F9D1FF90191838083F301EFCF1F
:102FE000F093BB04E093BA0481CF4816590608F465
:102FF0002C017D01D3019ACFCB010E9408167C01E0
:10300000009749F0AE01B8010E940E18C8010E9455
:10301000A41687016BCF10E000E068CFFB01DC0154
:1030200002C001900D9241505040D8F70895DC0144
:1030300001C06D9341505040E0F70895FB01DC0161
:1030400001900D920020E1F7089511E0CEE4D1E067
:1030500000E006C0802FFE010E9400162196011D8F
:0E306000CF34D10780E00807A9F7F894FFCF1E
:10306E00FFFB04FB04FB04FB04FB04FB04FB04FB5F
:10307E0004020008000000BC048000252627282931
:10308E002A2B2C2D2E2F30313233161718191A1BCE
:10309E001C1D1E1F2021222324060708090A0B0CC3
:1030AE000D3F065B4F666D7D077F6F777C395E79CE
:1030BE0071000000005702C101EE01A4021F02FDC3
:1030CE000111020D0A004974656D7320696E20713D
:1030DE0075657565206E6F773A20202020202000C0
:1030EE0051756575652061637475616C206D6178CD
:1030FE00206974656D733A202000517565756520E1
:10310E00656D7074793A202000517565756520667D
:10311E00756C6C3A20200062746E733A20006C65F8
:10312E0064733A200043474B0073686F72745F7488
:10313E006F6E65006C6F6E675F746F6E65007431D5
:10314E0000743200575F4B494C4C45520053564F5A
:08315E0059415F47414D450056
:00000001FF
